{
  "_format": "hh-sol-artifact-1",
  "contractName": "Upload",
  "sourceName": "contracts/Upload.sol",
  "abi": [
    {
      "inputs": [
        {
          "internalType": "address",
          "name": "_user",
          "type": "address"
        },
        {
          "internalType": "string",
          "name": "url",
          "type": "string"
        }
      ],
      "name": "add",
      "outputs": [],
      "stateMutability": "nonpayable",
      "type": "function"
    },
    {
      "inputs": [
        {
          "internalType": "address",
          "name": "user",
          "type": "address"
        }
      ],
      "name": "allow",
      "outputs": [],
      "stateMutability": "nonpayable",
      "type": "function"
    },
    {
      "inputs": [
        {
          "internalType": "address",
          "name": "user",
          "type": "address"
        }
      ],
      "name": "disallow",
      "outputs": [],
      "stateMutability": "nonpayable",
      "type": "function"
    },
    {
      "inputs": [
        {
          "internalType": "address",
          "name": "_user",
          "type": "address"
        }
      ],
      "name": "display",
      "outputs": [
        {
          "internalType": "string[]",
          "name": "",
          "type": "string[]"
        }
      ],
      "stateMutability": "view",
      "type": "function"
    },
    {
      "inputs": [],
      "name": "shareAccess",
      "outputs": [
        {
          "components": [
            {
              "internalType": "address",
              "name": "user",
              "type": "address"
            },
            {
              "internalType": "bool",
              "name": "access",
              "type": "bool"
            }
          ],
          "internalType": "struct Upload.Access[]",
          "name": "",
          "type": "tuple[]"
        }
      ],
      "stateMutability": "view",
      "type": "function"
    }
  ],
  "bytecode": "0x6080604052348015600f57600080fd5b506115a28061001f6000396000f3fe608060405234801561001057600080fd5b50600436106100575760003560e01c806336d6da551461005c578063a9ed9cb814610078578063bc8bef8114610094578063eb39113f146100b2578063ff9913e8146100e2575b600080fd5b61007660048036038101906100719190610dc4565b6100fe565b005b610092600480360381019061008d9190610e20565b610173565b005b61009c6104a9565b6040516100a99190610f55565b60405180910390f35b6100cc60048036038101906100c79190610e20565b6105b2565b6040516100d991906110b8565b60405180910390f35b6100fc60048036038101906100f79190610e20565b6107cc565b005b6000808373ffffffffffffffffffffffffffffffffffffffff1673ffffffffffffffffffffffffffffffffffffffff1681526020019081526020016000208190806001815401808255809150506001900390600052602060002001600090919091909150908161016e91906112f0565b505050565b60011515600160003373ffffffffffffffffffffffffffffffffffffffff1673ffffffffffffffffffffffffffffffffffffffff16815260200190815260200160002060008373ffffffffffffffffffffffffffffffffffffffff1673ffffffffffffffffffffffffffffffffffffffff16815260200190815260200160002060009054906101000a900460ff16151514610243576040517f08c379a000000000000000000000000000000000000000000000000000000000815260040161023a9061141f565b60405180910390fd5b6000600160003373ffffffffffffffffffffffffffffffffffffffff1673ffffffffffffffffffffffffffffffffffffffff16815260200190815260200160002060008373ffffffffffffffffffffffffffffffffffffffff1673ffffffffffffffffffffffffffffffffffffffff16815260200190815260200160002060006101000a81548160ff0219169083151502179055506000805b600260003373ffffffffffffffffffffffffffffffffffffffff1673ffffffffffffffffffffffffffffffffffffffff16815260200190815260200160002080549050811015610464578273ffffffffffffffffffffffffffffffffffffffff16600260003373ffffffffffffffffffffffffffffffffffffffff1673ffffffffffffffffffffffffffffffffffffffff168152602001908152602001600020828154811061038e5761038d61143f565b5b9060005260206000200160000160009054906101000a900473ffffffffffffffffffffffffffffffffffffffff1673ffffffffffffffffffffffffffffffffffffffff1603610457576000600260003373ffffffffffffffffffffffffffffffffffffffff1673ffffffffffffffffffffffffffffffffffffffff168152602001908152602001600020828154811061042a5761042961143f565b5b9060005260206000200160000160146101000a81548160ff02191690831515021790555060019150610464565b80806001019150506102dc565b50806104a5576040517f08c379a000000000000000000000000000000000000000000000000000000000815260040161049c906114ba565b60405180910390fd5b5050565b6060600260003373ffffffffffffffffffffffffffffffffffffffff1673ffffffffffffffffffffffffffffffffffffffff168152602001908152602001600020805480602002602001604051908101604052809291908181526020016000905b828210156105a9578382906000526020600020016040518060400160405290816000820160009054906101000a900473ffffffffffffffffffffffffffffffffffffffff1673ffffffffffffffffffffffffffffffffffffffff1673ffffffffffffffffffffffffffffffffffffffff1681526020016000820160149054906101000a900460ff1615151515815250508152602001906001019061050a565b50505050905090565b60603373ffffffffffffffffffffffffffffffffffffffff168273ffffffffffffffffffffffffffffffffffffffff16141580156106775750600160008373ffffffffffffffffffffffffffffffffffffffff1673ffffffffffffffffffffffffffffffffffffffff16815260200190815260200160002060003373ffffffffffffffffffffffffffffffffffffffff1673ffffffffffffffffffffffffffffffffffffffff16815260200190815260200160002060009054906101000a900460ff16155b156106b7576040517f08c379a00000000000000000000000000000000000000000000000000000000081526004016106ae9061154c565b60405180910390fd5b6000808373ffffffffffffffffffffffffffffffffffffffff1673ffffffffffffffffffffffffffffffffffffffff168152602001908152602001600020805480602002602001604051908101604052809291908181526020016000905b828210156107c157838290600052602060002001805461073490611109565b80601f016020809104026020016040519081016040528092919081815260200182805461076090611109565b80156107ad5780601f10610782576101008083540402835291602001916107ad565b820191906000526020600020905b81548152906001019060200180831161079057829003601f168201915b505050505081526020019060010190610715565b505050509050919050565b60018060003373ffffffffffffffffffffffffffffffffffffffff1673ffffffffffffffffffffffffffffffffffffffff16815260200190815260200160002060008373ffffffffffffffffffffffffffffffffffffffff1673ffffffffffffffffffffffffffffffffffffffff16815260200190815260200160002060006101000a81548160ff021916908315150217905550600360003373ffffffffffffffffffffffffffffffffffffffff1673ffffffffffffffffffffffffffffffffffffffff16815260200190815260200160002060008273ffffffffffffffffffffffffffffffffffffffff1673ffffffffffffffffffffffffffffffffffffffff16815260200190815260200160002060009054906101000a900460ff1615610a785760005b600260003373ffffffffffffffffffffffffffffffffffffffff1673ffffffffffffffffffffffffffffffffffffffff16815260200190815260200160002080549050811015610a72578173ffffffffffffffffffffffffffffffffffffffff16600260003373ffffffffffffffffffffffffffffffffffffffff1673ffffffffffffffffffffffffffffffffffffffff16815260200190815260200160002082815481106109a4576109a361143f565b5b9060005260206000200160000160009054906101000a900473ffffffffffffffffffffffffffffffffffffffff1673ffffffffffffffffffffffffffffffffffffffff1603610a65576001600260003373ffffffffffffffffffffffffffffffffffffffff1673ffffffffffffffffffffffffffffffffffffffff1681526020019081526020016000208281548110610a4057610a3f61143f565b5b9060005260206000200160000160146101000a81548160ff0219169083151502179055505b80806001019150506108f2565b50610c09565b600260003373ffffffffffffffffffffffffffffffffffffffff1673ffffffffffffffffffffffffffffffffffffffff16815260200190815260200160002060405180604001604052808373ffffffffffffffffffffffffffffffffffffffff168152602001600115158152509080600181540180825580915050600190039060005260206000200160009091909190915060008201518160000160006101000a81548173ffffffffffffffffffffffffffffffffffffffff021916908373ffffffffffffffffffffffffffffffffffffffff16021790555060208201518160000160146101000a81548160ff02191690831515021790555050506001600360003373ffffffffffffffffffffffffffffffffffffffff1673ffffffffffffffffffffffffffffffffffffffff16815260200190815260200160002060008373ffffffffffffffffffffffffffffffffffffffff1673ffffffffffffffffffffffffffffffffffffffff16815260200190815260200160002060006101000a81548160ff0219169083151502179055505b50565b6000604051905090565b600080fd5b600080fd5b600073ffffffffffffffffffffffffffffffffffffffff82169050919050565b6000610c4b82610c20565b9050919050565b610c5b81610c40565b8114610c6657600080fd5b50565b600081359050610c7881610c52565b92915050565b600080fd5b600080fd5b6000601f19601f8301169050919050565b7f4e487b7100000000000000000000000000000000000000000000000000000000600052604160045260246000fd5b610cd182610c88565b810181811067ffffffffffffffff82111715610cf057610cef610c99565b5b80604052505050565b6000610d03610c0c565b9050610d0f8282610cc8565b919050565b600067ffffffffffffffff821115610d2f57610d2e610c99565b5b610d3882610c88565b9050602081019050919050565b82818337600083830152505050565b6000610d67610d6284610d14565b610cf9565b905082815260208101848484011115610d8357610d82610c83565b5b610d8e848285610d45565b509392505050565b600082601f830112610dab57610daa610c7e565b5b8135610dbb848260208601610d54565b91505092915050565b60008060408385031215610ddb57610dda610c16565b5b6000610de985828601610c69565b925050602083013567ffffffffffffffff811115610e0a57610e09610c1b565b5b610e1685828601610d96565b9150509250929050565b600060208284031215610e3657610e35610c16565b5b6000610e4484828501610c69565b91505092915050565b600081519050919050565b600082825260208201905092915050565b6000819050602082019050919050565b610e8281610c40565b82525050565b60008115159050919050565b610e9d81610e88565b82525050565b604082016000820151610eb96000850182610e79565b506020820151610ecc6020850182610e94565b50505050565b6000610ede8383610ea3565b60408301905092915050565b6000602082019050919050565b6000610f0282610e4d565b610f0c8185610e58565b9350610f1783610e69565b8060005b83811015610f48578151610f2f8882610ed2565b9750610f3a83610eea565b925050600181019050610f1b565b5085935050505092915050565b60006020820190508181036000830152610f6f8184610ef7565b905092915050565b600081519050919050565b600082825260208201905092915050565b6000819050602082019050919050565b600081519050919050565b600082825260208201905092915050565b60005b83811015610fdd578082015181840152602081019050610fc2565b60008484015250505050565b6000610ff482610fa3565b610ffe8185610fae565b935061100e818560208601610fbf565b61101781610c88565b840191505092915050565b600061102e8383610fe9565b905092915050565b6000602082019050919050565b600061104e82610f77565b6110588185610f82565b93508360208202850161106a85610f93565b8060005b858110156110a657848403895281516110878582611022565b945061109283611036565b925060208a0199505060018101905061106e565b50829750879550505050505092915050565b600060208201905081810360008301526110d28184611043565b905092915050565b7f4e487b7100000000000000000000000000000000000000000000000000000000600052602260045260246000fd5b6000600282049050600182168061112157607f821691505b602082108103611134576111336110da565b5b50919050565b60008190508160005260206000209050919050565b60006020601f8301049050919050565b600082821b905092915050565b60006008830261119c7fffffffffffffffffffffffffffffffffffffffffffffffffffffffffffffffff8261115f565b6111a6868361115f565b95508019841693508086168417925050509392505050565b6000819050919050565b6000819050919050565b60006111ed6111e86111e3846111be565b6111c8565b6111be565b9050919050565b6000819050919050565b611207836111d2565b61121b611213826111f4565b84845461116c565b825550505050565b600090565b611230611223565b61123b8184846111fe565b505050565b5b8181101561125f57611254600082611228565b600181019050611241565b5050565b601f8211156112a4576112758161113a565b61127e8461114f565b8101602085101561128d578190505b6112a16112998561114f565b830182611240565b50505b505050565b600082821c905092915050565b60006112c7600019846008026112a9565b1980831691505092915050565b60006112e083836112b6565b9150826002028217905092915050565b6112f982610fa3565b67ffffffffffffffff81111561131257611311610c99565b5b61131c8254611109565b611327828285611263565b600060209050601f83116001811461135a5760008415611348578287015190505b61135285826112d4565b8655506113ba565b601f1984166113688661113a565b60005b828110156113905784890151825560018201915060208501945060208101905061136b565b868310156113ad57848901516113a9601f8916826112b6565b8355505b6001600288020188555050505b505050505050565b600082825260208201905092915050565b7f5573657220646f6573206e6f7420686176652061636365737300000000000000600082015250565b60006114096019836113c2565b9150611414826113d3565b602082019050919050565b60006020820190508181036000830152611438816113fc565b9050919050565b7f4e487b7100000000000000000000000000000000000000000000000000000000600052603260045260246000fd5b7f55736572206e6f7420666f756e6420696e20616363657373206c697374000000600082015250565b60006114a4601d836113c2565b91506114af8261146e565b602082019050919050565b600060208201905081810360008301526114d381611497565b9050919050565b7f596f7520646f6e277420686176652061636365737320746f207669657720746860008201527f6973206461746100000000000000000000000000000000000000000000000000602082015250565b60006115366027836113c2565b9150611541826114da565b604082019050919050565b6000602082019050818103600083015261156581611529565b905091905056fea26469706673582212205184cc5a76b2f4071d50423038c05b10fc328bf8e55258e1f32162f02fa9da4464736f6c634300081b0033",
  "linkReferences": {},
  "deployedLinkReferences": {}
}